:020000040800F2
:1000000000000220458A0008E1830008E38300081D
:10001000E5830008E7830008E9830008000000008A
:10002000000000000000000000000000D173000884
:10003000EB8300080000000071740008ED830008E5
:10004000958A0008958A0008958A0008958A000814
:10005000958A0008958A0008958A0008958A000804
:10006000958A0008958A0008958A0008958A0008F4
:10007000958A0008F5830008958A0008958A00088B
:10008000958A0008958A0008958A0008958A0008D4
:10009000958A0008958A0008958A0008958A0008C4
:1000A000958A0008958A0008958A0008958A0008B4
:1000B000958A0008958A0008958A0008958A0008A4
:1000C000958A0008958A0008958A0008958A000894
:1000D000958A0008958A0008958A0008958A000884
:1000E000958A0008958A0008958A0008958A000874
:1000F000958A0008958A0008958A0008958A000864
:10010000958A0008958A0008958A0008958A000853
:10011000958A0008958A000805840008958A0008D9
:10012000958A0008958A0008958A0008958A000833
:10013000958A00080000000000000000958A000871
:10014000958A0008958A0008958A0008958A000813
:10015000958A0008958A0008958A0008958A000803
:10016000958A0008958A0008958A0008958A0008F3
:10017000958A0008958A0008958A0008000000000A
:1001800000000000958A0008000000000000000048
:10019000958A00080000000000000000958A000811
:1001A000000000000000000000000000958A000828
:1001B000958A0008958A0008958A0008958A0008A3
:0401C000958A000814
:1001D00010B5054C237833B9044B13B10448AFF381
:1001E00000800123237010BDF801002000000000F2
:1001F000BCBF000808B5034B1BB103490348AFF36C
:10020000008008BD00000000FC010020BCBF000809
:1002100081F0004102E000BF83F0004330B54FEAB7
:1002200041044FEA430594EA050F08BF90EA020F24
:100230001FBF54EA000C55EA020C7FEA645C7FEAB7
:10024000655C00F0E2804FEA5454D4EB5555B8BFDA
:100250006D420CDD2C4480EA020281EA030382EA4B
:10026000000083EA010180EA020281EA0303362DDD
:1002700088BF30BD11F0004F4FEA01314FF4801CB0
:100280004CEA113102D0404261EB410113F0004FC2
:100290004FEA03334CEA133302D0524263EB430379
:1002A00094EA050F00F0A780A4F10104D5F1200E17
:1002B0000DDB02FA0EFC22FA05F2801841F1000172
:1002C00003FA0EF2801843FA05F359410EE0A5F146
:1002D00020050EF1200E012A03FA0EFC28BF4CF077
:1002E000020C43FA05F3C01851EBE37101F000452D
:1002F00007D54FF0000EDCF1000C7EEB00006EEB3A
:100300000101B1F5801F1BD3B1F5001F0CD34908C3
:100310005FEA30004FEA3C0C04F101044FEA44521A
:1003200012F5800F80F09A80BCF1004F08BF5FEAA1
:10033000500C50F1000041EB045141EA050130BD81
:100340005FEA4C0C404141EB010111F4801FA4F124
:100350000104E9D191F0000F04BF01460020B1FA79
:1003600081F308BF2033A3F10B03B3F120020CDAB1
:100370000C3208DD02F1140CC2F10C0201FA0CF08F
:1003800021FA02F10CE002F11402D8BFC2F1200CF4
:1003900001FA02F120FA0CFCDCBF41EA0C019040AA
:1003A000E41AA2BF01EB0451294330BD6FEA0404F3
:1003B0001F3C1CDA0C340EDC04F11404C4F12002DE
:1003C00020FA04F001FA02F340EA030021FA04F3F0
:1003D00045EA030130BDC4F10C04C4F1200220FA47
:1003E00002F001FA04F340EA0300294630BD21FA85
:1003F00004F0294630BD94F0000F83F4801306BF4B
:1004000081F480110134013D4EE77FEA645C18BF3E
:100410007FEA655C29D094EA050F08BF90EA020FD5
:1004200005D054EA000C04BF1946104630BD91EACD
:10043000030F1EBF0021002030BD5FEA545C05D1D0
:100440004000494128BF41F0004130BD14F580040F
:100450003CBF01F5801130BD01F0004545F0FE4183
:1004600041F470014FF0000030BD7FEA645C1ABFB8
:10047000194610467FEA655C1CBF0B46024650EAEF
:10048000013406BF52EA033591EA030F41F400211B
:1004900030BD00BF90F0000F04BF0021704730B5A1
:1004A0004FF4806404F132044FF000054FF0000176
:1004B00050E700BF90F0000F04BF0021704730B537
:1004C0004FF4806404F1320410F0004548BF40420C
:1004D0004FF000013EE700BF42004FEAE2014FEA61
:1004E00031014FEA02701FBF12F07F4393F07F4F3C
:1004F00081F06051704732F07F4208BF704793F03F
:100500007F4F04BF41F40021704730B54FF4607451
:1005100001F0004521F000411CE700BF50EA010254
:1005200008BF704730B54FF000050AE050EA0102FD
:1005300008BF704730B511F0004502D5404261EB6D
:1005400041014FF4806404F132045FEA915C3FF4AE
:10055000D8AE4FF003025FEADC0C18BF03325FEA4B
:10056000DC0C18BF033202EBDC02C2F1200300FAFC
:1005700003FC20FA02F001FA03FE40EA0E0021FA21
:1005800002F11444BDE600BF70B54FF0FF0C4CF40F
:10059000E06C1CEA11541DBF1CEA135594EA0C0FC1
:1005A00095EA0C0F00F0DEF82C4481EA030621EAFC
:1005B0004C5123EA4C5350EA013518BF52EA033537
:1005C00041F4801143F4801338D0A0FB02CE4FF0E9
:1005D0000005E1FB02E506F00042E0FB03E54FF019
:1005E0000006E1FB03569CF0000F18BF4EF0010E11
:1005F000A4F1FF04B6F5007F64F5407404D25FEA0D
:100600004E0E6D4146EB060642EAC62141EA5551BF
:100610004FEAC52040EA5E504FEACE2EB4F1FD0C01
:1006200088BFBCF5E06F1ED8BEF1004F08BF5FEA7F
:10063000500E50F1000041EB045170BD06F0004631
:1006400046EA010140EA020081EA0301B4EB5C04DE
:10065000C2BFD4EB0C0541EA045170BD41F48011D6
:100660004FF0000E013C00F3AB8014F1360FDEBFFB
:10067000002001F0004170BDC4F10004203C35DAD7
:100680000C341BDC04F11404C4F1200500FA05F35A
:1006900020FA04F001FA05F240EA020001F00042FB
:1006A00021F0004110EBD37021FA04F642EB060171
:1006B0005EEA430E08BF20EAD37070BDC4F10C049B
:1006C000C4F1200500FA04F320FA05F001FA04F25F
:1006D00040EA020001F0004110EBD37041F100014B
:1006E0005EEA430E08BF20EAD37070BDC4F1200556
:1006F00000FA05F24EEA020E20FA04F301FA05F2BE
:1007000043EA020321FA04F001F0004121FA04F265
:1007100020EA020000EBD3705EEA430E08BF20EA35
:10072000D37070BD94F0000F0FD101F0004640006F
:1007300041EB010111F4801F08BF013CF7D041EAF1
:10074000060195F0000F18BF704703F000465200F5
:1007500043EB030313F4801F08BF013DF7D043EAC6
:100760000603704794EA0C0F0CEA135518BF95EA7C
:100770000C0F0CD050EA410618BF52EA4306D1D103
:1007800081EA030101F000414FF0000070BD50EA22
:10079000410606BF1046194652EA430619D094EAAC
:1007A0000C0F02D150EA013613D195EA0C0F05D196
:1007B00052EA03361CBF104619460AD181EA0301EA
:1007C00001F0004141F0FE4141F470014FF00000A2
:1007D00070BD41F0FE4141F4780170BD70B54FF03D
:1007E000FF0C4CF4E06C1CEA11541DBF1CEA1355BD
:1007F00094EA0C0F95EA0C0F00F0A7F8A4EB05049F
:1008000081EA030E52EA03354FEA013100F0888095
:100810004FEA03334FF0805545EA131343EA12635E
:100820004FEA022245EA111545EA10654FEA002613
:100830000EF000419D4208BF964244F1FD0404F5CC
:10084000407402D25B084FEA3202B61A65EB030528
:100850005B084FEA32024FF480104FF4002CB6EBE5
:10086000020E75EB030E22BFB61A754640EA0C0065
:100870005B084FEA3202B6EB020E75EB030E22BFA5
:10088000B61A754640EA5C005B084FEA3202B6EBE6
:10089000020E75EB030E22BFB61A754640EA9C00A5
:1008A0005B084FEA3202B6EB020E75EB030E22BF75
:1008B000B61A754640EADC0055EA060E18D04FEA33
:1008C000051545EA16754FEA06164FEAC30343EAD3
:1008D00052734FEAC2025FEA1C1CC0D111F4801FA0
:1008E0000BD141EA00014FF000004FF0004CB6E799
:1008F00011F4801F04BF01430020B4F1FD0C88BF38
:10090000BCF5E06F3FF6AFAEB5EB030C04BFB6EB42
:10091000020C5FEA500C50F1000041EB045170BD35
:100920000EF0004E4EEA113114EB5C04C2BFD4EB62
:100930000C0541EA045170BD41F480114FF0000EE6
:10094000013C90E645EA060E8DE60CEA135594EA62
:100950000C0F08BF95EA0C0F3FF43BAF94EA0C0F65
:100960000AD150EA01347FF434AF95EA0C0F7FF4DA
:1009700025AF104619462CE795EA0C0F06D152EA2E
:1009800003353FF4FDAE1046194622E750EA410612
:1009900018BF52EA43067FF4C5AE50EA41047FF423
:1009A0000DAF52EA43057FF4EBAE12E74FF0FF3C88
:1009B00006E000BF4FF0010C02E000BF4FF0010C59
:1009C0004DF804CD4FEA410C7FEA6C5C4FEA430CD2
:1009D00018BF7FEA6C5C1BD001B050EA410C0CBF21
:1009E00052EA430C91EA030F02BF90EA020F002083
:1009F000704710F1000F91EA030F58BF994208BFEA
:100A000090422CBFD8176FEAE37040F001007047A6
:100A10004FEA410C7FEA6C5C02D150EA013C07D1FD
:100A20004FEA430C7FEA6C5CD6D152EA033CD3D048
:100A30005DF8040B704700BF8446104662468C4642
:100A40001946634600E000BF01B5FFF7B7FF002875
:100A500048BF10F1000F01BD4DF808EDFFF7F4FF9E
:100A60000CBF012000205DF808FB00BF4DF808ED29
:100A7000FFF7EAFF34BF012000205DF808FB00BF4C
:100A80004DF808EDFFF7E0FF94BF012000205DF86E
:100A900008FB00BF4DF808EDFFF7CEFF94BF012023
:100AA00000205DF808FB00BF4DF808EDFFF7C4FF1C
:100AB00034BF012000205DF808FB00BF4FEA410C65
:100AC0007FEA6C5C02D150EA013C0AD14FEA430C48
:100AD0007FEA6C5C02D152EA033C02D14FF0000085
:100AE00070474FF0010070474FEA410212F50012C3
:100AF00015D211D56FF47873B3EB625212D94FEA65
:100B0000C12343F0004343EA505311F0004F23FA4E
:100B100002F018BF404270474FF00000704750EAA3
:100B2000013005D111F0004008BF6FF00040704760
:100B30004FF00000704700BF4FEA4102B2F1E043BE
:100B400024BFB3F5001CDCF1FE5C0DD901F0004CB4
:100B50004FEAC0024CEA5070B2F1004F40EB830004
:100B600008BF20F00100704711F0804F21D113F130
:100B70003872BCBF01F00040704741F480114FEA69
:100B80005252C2F11802C2F1200C10FA0CF320FAF2
:100B900002F018BF40F001004FEAC1234FEAD3230F
:100BA00003FA0CFC40EA0C0023FA02F34FEA430379
:100BB000CCE77FEA625307D150EA01331EBF4FF002
:100BC000FE4040F44000704701F0004040F0FE401D
:100BD00040F40000704700BF53B94AB9002908BF6C
:100BE00000281CBF4FF0FF314FF0FF3000F072B90A
:100BF000ADF1080C6DE904CE00F006F8DDF804E074
:100C0000DDE9022304B070472DE9F047089E044651
:100C10008846002B4BD18A42154667D9B2FA82F238
:100C20004AB1C2F1200701FA02F320FA07F7954012
:100C300047EA030894404FEA154E230CB8FBFEF731
:100C40001FFA85FC0EFB178843EA084307FB0CF1EB
:100C5000994209D9EB1807F1FF3080F01B819942C6
:100C600040F21881023F2B445B1AA4B2B3FBFEF0A2
:100C70000EFB103344EA034400FB0CFCA44509D9E5
:100C80002C1900F1FF3380F00781A44540F2048164
:100C900002382C4440EA0740A4EB0C0400271EB1A4
:100CA000D4400023C6E900433946BDE8F0878B42B3
:100CB00009D9002E00F0EB800027C6E90001384674
:100CC0003946BDE8F087B3FA83F7002F47D18B424E
:100CD00002D3824200F2FA80841A61EB03030120FE
:100CE0009846002EE0D0C6E90048DDE702B9FFDEF5
:100CF000B2FA82F2002A40F08F80491B4FEA154E6B
:100D00001FFA85F80127B1FBFEFC230C0EFB1C111A
:100D100043EA014308FB0CF1994207D9EB180CF1A7
:100D2000FF3002D2994200F2CD808446591AA3B214
:100D3000B1FBFEF00EFB101443EA044408FB00F87C
:100D4000A04507D92C1900F1FF3302D2A04500F2CB
:100D5000B6801846A4EB080440EA0C409FE7C7F1B0
:100D6000200CBB4022FA0CFE4EEA030E01FA07F4F7
:100D700020FA0CF521FA0CF34FEA1E482543B3FB89
:100D8000F8F92C0C08FB19331FFA8EFA44EA0343D6
:100D900009FB0AF49C4202FA07F200FA07F10BD9A8
:100DA0001EEB030309F1FF3080F087809C4240F284
:100DB0008480A9F1020973441B1BADB2B3FBF8F0A8
:100DC00008FB103345EA034400FB0AFAA24508D9A0
:100DD0001EEB040400F1FF336BD2A24569D902383F
:100DE000744440EA0940A0FB0289A4EB0A044C4584
:100DF000C2464B4654D351D0002E69D0B1EB0A0500
:100E000064EB030404FA0CFCFD40FC404CEA0505CD
:100E1000C6E90054002747E7C2F1200320FA03F790
:100E2000954001FA02F021FA03F34FEA154E3843D8
:100E3000010CB3FBFEF71FFA85F80EFB173341EAEE
:100E4000034107FB08F38B4204FA02F407D969183F
:100E500007F1FF3C2FD28B422DD9023F2944CB1AF8
:100E600081B2B3FBFEF00EFB103341EA034100FBFD
:100E700008F38B4207D9691800F1FF3C17D28B4267
:100E800015D902382944C91A40EA07473BE73746D3
:100E9000304609E70746E7E61846FBE64145ABD290
:100EA000B8EB020A69EB0E0201381346A4E760466C
:100EB000E9E7184695E76746D1E781467CE70238BF
:100EC0002C4447E7ACF1020C2B442FE7384608E7E7
:100ED0003746E9E6704700BF034613F8012B002AA6
:100EE000FBD1181A01387047000000000000000014
:100EF00001F0FF01102A2BDB10F0070F08D010F8CB
:100F0000013B013A8B422DD010F0070F42B3F6D1CE
:100F1000F0B441EA012141EA014122F007047FF0E7
:100F200000070023F0E80256083C85EA010586EA3E
:100F3000010685FA47F5A3FA87F586FA47F6A5FA7A
:100F400087F68EB9EED1F0BC01F0FF0102F0070286
:100F500032B110F8013B013A83EA010313B1F8D131
:100F60000020704701387047002D06BF3546033812
:100F7000073815F0010F07D1013015F4807F02BF4B
:100F8000013015F4C03F0130F0BC0138704700BF9C
:100F9000034641F2055003E000EB401018441346AD
:100FA0005A1C1B78002BF7D17047000070B586B033
:100FB0000E4615461C46FFF7EBFF0190039602957F
:100FC0000A9B059304940023092B11DC03EB830196
:100FD0008A0008498A580AB10133F5E703EB830315
:100FE0009A000C46144401AD0FCD0FC42B6823604A
:100FF00006B070BD3C420020F8B50F461646FFF71C
:10100000C7FF0546012000240AE004EB84039A0090
:10101000224B13445B68002B38D038469847013484
:10102000092C34DC04EB840293001C4AD358AB42F5
:10103000F5D1032E28D801A353F826F07510000827
:10104000611000084D1000080B10000804EB840329
:101050009A00124B13449B68D3B138469847DEE799
:1010600004EB84039A000D4B1344DB6893B13846BC
:101070009847D4E704EB84039A00084B13441B6998
:1010800053B138469847CAE70120C8E70120F8BDA8
:101090000120FCE70120FAE70120F8E73C420020AC
:1010A0002DE9F0478EB005468A463B4900F091F89D
:1010B0000646284600F072F8002E67DB044600F171
:1010C000FF381FFA88F80FFA88F7334800F066F8FF
:1010D000811989B20B464FF0FF39002605E056B959
:1010E0005F1E3FB2022601339BB2A34219D29C4637
:1010F000EA5C3F2AF3D03D2AF5D1002EF3D15F1EE2
:101100003FB2621E934245DAAC449CF801203F2A6C
:1011100005D003F101090FFA89F90326E3E7012657
:10112000E1E700238AF80030022E03D9032E0CD009
:1011300001202CE001ABBAB2284600F06FF832462D
:10114000514601A8FFF758FF21E001ABBAB228468B
:1011500000F064F8013CA14508DD3246514601A883
:10116000FFF74AFF00238AF8003010E0534642465A
:101170001FFA89F1284600F051F83246514601A87D
:10118000FFF73AFF00238AF8003000E001200EB09C
:10119000BDE8F0870120FAE774C50008002302E0EB
:1011A00001339BB201300278002AF9D1184670470A
:1011B00070B40024A34207DDCD1A2544465D155DB9
:1011C000AE4204D10134F5E7012070BC7047002025
:1011D000FBE72DE9F041064688460846FFF7DEFFAB
:1011E00005463046FFF7DAFF854214D8074600244B
:1011F0007B1BA3420BDD2B46424629463046FFF7B8
:10120000D7FF10B901360134F2E720B201E04FF008
:10121000FF30BDE8F0814FF0FF30FAE730B4002432
:1012200005E0455C1D550134A4B2013189B29142FB
:10123000F7D900221A5530BC7047000030B585B090
:10124000084C2468246A64250295019300920123C6
:101250000A4600FA03F1204601F0F4FA40B205B064
:1012600030BD00BF0443002030B585B0084C246871
:10127000246A642502950193009201230A4600FA2C
:1012800003F1204601F020FA40B205B030BD00BFA6
:101290000443002070B582B000238DF804308DF82F
:1012A00005308DF806300D4B1C68A4B10546E66A82
:1012B000032301AAFA21607FB0479DF804209DF81E
:1012C00005301B0143EA02339DF8062043EA12135E
:1012D0002B6002B070BD6FF07E00FAE7044300207F
:1012E00070B582B000238DF804308DF805308DF88C
:1012F00006300D4B1C68A4B10546E66A032301AA1B
:10130000F721607FB0479DF804209DF805301B0150
:1013100043EA02339DF8062043EA12132B6002B021
:1013200070BD6FF07E00FAE70443002010B586B070
:101330000023009301930293039304930593334B8B
:10134000186800285FD0C46A18236A468821407F45
:10135000A0479DF801409DF800202C4B196842EAF7
:1013600004220A809DF903409DF80220196842EA90
:1013700004224A809DF905109DF804201B6842EA6A
:1013800001229A809DF807109DF8062042EA01226A
:10139000DA809DF909109DF8082042EA01221A819D
:1013A0009DF90B109DF80A2042EA01225A819DF90D
:1013B0000D109DF80C2042EA01229A819DF90F1030
:1013C0009DF80E2042EA0122DA819DF911109DF864
:1013D000102042EA01221A829DF913109DF8122072
:1013E00042EA01225A829DF915109DF8142042EA22
:1013F00001229A829DF917109DF8162042EA0122D7
:10140000DA8206B010BD6FF07E00FAE704430020D8
:1014100030B583B000238DF80730194B1860194B95
:101420008362194BC362437F0BB976234377174B13
:1014300003630524B4B1124B1868C56A01230DF18A
:101440000702D021407FA8479DF80730563BDBB20A
:10145000022B07D9013CE4B2094B1B681B6B01202E
:101460009847E7E7064B1B689DF807201A771CB1E1
:10147000FFF75CFF03B030BD4FF0FF30FAE700BF6D
:1014800004430020691200083D1200087D1A00087C
:1014900030B583B000238DF80730134B1C68ECB1D6
:1014A00003281ED894F824305B01DBB294F8252081
:1014B0009200D2B21344DBB2184402AA02F8010D22
:1014C000A56A0123F421607FA8470446064B1B68E8
:1014D0001B6B14209847204603B030BD6FF07E048C
:1014E000F9E76FF00104F6E70443002070B582B01D
:1014F00000238DF80730134B1C68FCB10546E66AE3
:1015000001230DF10702F521607FB047044690B931
:101510009DF8073003F01F0343EA451002AA02F8C2
:10152000010D084B1868856A0123F521407FA84703
:1015300054FA80F464B2204602B070BD6FF07E04AD
:10154000F9E700BF0443002070B582B000238DF896
:101550000730344B1D68002D5ED004285FD8044648
:10156000EE6A01230DF10702F421687FB0470546BA
:1015700058BB042C0BD8DFE804F0032B343D4600A5
:10158000284B1B68012283F8242083F825209DF82E
:10159000073003F01F03234A106890F8242043EA21
:1015A00042135BB223F01C0390F82520920002F056
:1015B0001C02134302AA02F8013D846A0123F421AC
:1015C000407FA04755FA80F56DB2284602B070BD45
:1015D000144B1B68012283F82420022283F8252063
:1015E000D5E7104B1B68012283F82420032283F8DF
:1015F0002520CCE70B4B1B68012283F82420042212
:1016000083F82520C3E7074B1B68022283F82420B8
:10161000052283F82520BAE76FF07E05D5E76FF045
:101620000105D2E7044300202DE9D04FFEF742FF29
:101630008046894600222E4BFEF7A6FF06460F463F
:101640002C4B1C682088FEF725FF82468B46002223
:10165000294BFEF799FF02460B4630463946FEF706
:10166000DBFD06460F46B4F90200FEF723FF0246F3
:101670000B4630463946FEF787FF06460F460022E6
:101680001E4B40464946FEF77FFF804689460022B2
:101690001B4B50465946FEF777FF02460B46404625
:1016A0004946FEF7B9FD02460B46FEF76DFF804640
:1016B0008946B4F90400FEF7FDFE02460B4640469B
:1016C0004946FEF761FF02460B4630463946FEF7B3
:1016D000A5FD06460F46FFF707FAA0610022094B59
:1016E00030463946FFF77AF841EC100BBDE8D08F51
:1016F0000000103F044300200000503F0000E03E87
:101700000000203F0000B4402DE9F84F0546824B11
:101710001C68A069FEF7CEFE0022804BFEF734FF66
:1017200000227F4BFEF778FD06460F4602460B4629
:10173000FEF72AFF80468946B4F91000FEF7BAFE8C
:1017400002460B4640464946FEF71EFF00224FF078
:101750007C53FEF719FF80468946B4F90E00FEF768
:10176000A9FE32463B46FEF70FFF02460B46FEF748
:1017700055FD42464B46FEF751FD0022694BFEF7F0
:1017800003FF80468946B4F90C00FEF793FE002261
:10179000654BFEF7F9FE02460B4640464946FEF70A
:1017A0003DFD82468B46B4F90A00FEF783FE3246C1
:1017B0003B46FEF7E9FE32463B46FEF7E5FE0022D9
:1017C0004FF07B53FEF7E0FE80468946B4F90800EF
:1017D000FEF770FE32463B46FEF7D6FE02460B464B
:1017E00040464946FEF71AFD00224FF07B53FEF7B4
:1017F000CBFE00224FF07C53FEF7C6FE00224B4B7F
:10180000FEF70CFD06460F46E088FEF743FE024653
:101810000B4630463946FEF7B7FE06460F462846C9
:10182000FEF748FE02460B4600204149FEF7F4FC55
:10183000804689460022002330463946FFF73EF9AC
:1018400000285CD10022002330463946FFF704F916
:10185000002854D10022374B50465946FEF794FEDB
:1018600002460B4640464946FEF7D6FC26A3D3E97E
:101870000023FEF789FE32463B46FEF7AFFF0646E1
:101880000F46B4F91600FEF715FE32463B46FEF74A
:101890007BFE32463B46FEF777FE00224FF0785340
:1018A000FEF772FE80468946B4F91400FEF702FE88
:1018B00032463B46FEF768FE00224FF07C53FEF7AF
:1018C00063FE02460B4640464946FEF7A7FC8046AB
:1018D0008946B4F91200FEF7EDFD02460B4640467C
:1018E0004946FEF79BFC0022134BFEF74DFE3246A5
:1018F0003B46FEF793FC41EC100BBDE8F88F9FEDE3
:10190000040BFAE7AFF3008000000000006AB84063
:101910000000000000000000044300200000E03F41
:101920000040EF400000D03F0000F0400000F03FDA
:10193000000030410000303F0000B03F30B583B0C0
:1019400000230193094B1B6863B1044601A8FFF70C
:10195000A1FC05460198FFF767FE84ED000B2846C1
:1019600003B030BD6FF07E05F9E700BF04430020EF
:1019700030B583B000230193094B1B6863B1044663
:1019800001A8FFF7ADFC05460198FFF7BDFE84ED09
:10199000000B284603B030BD6FF07E05F9E700BFAD
:1019A000044300200000000010B582B0044602A8E5
:1019B0000022002360E90223FFF7DAFFB0F1FF3FC6
:1019C0001DD02046FEF766FD02460B46DDE900010C
:1019D000FEF704FF9FED0C1B41EC100B07F0B0F875
:1019E00053EC102B00200E49FEF716FC08A3D3E998
:1019F0000023FEF7C9FD41EC100B02B010BD9FEDB6
:101A0000060BFAE7AFF300806C45D9CC955BC83F75
:101A10000000000040A5E5400000000000000000BC
:101A20000000F03F08B50B4B1A6842F400721A60D0
:101A30001A6842F480621A601A6842F480721A606E
:101A4000032000F02FF8002006F08CFC06F040FC8C
:101A5000002008BD003C0240034A1168034B1B787C
:101A60000B441360704700BF0843002000000020B3
:101A7000014B1868704700BF0843002038B5044682
:101A8000FFF7F6FF0546B4F1FF3F02D0044B1B7889
:101A90001C44FFF7EDFF401BA042FAD338BD00BF46
:101AA00000000020074AD36823F4E0631B041B0CEA
:101AB000000200F4E060184340F0BF6040F40030E2
:101AC000D060704700ED00E030B4174BDB68C3F323
:101AD0000223C3F10704042C28BF04241D1D062D76
:101AE00018D9033B4FF0FF3505FA04F421EA04014D
:101AF000994005FA03F322EA0303194300280BDB9C
:101B00000901C9B200F1604000F5614080F800139E
:101B100030BC70470023E5E700F00F000901C9B2AF
:101B2000024B1954F4E700BF00ED00E014ED00E0B3
:101B300000F01F02400901239340024A42F820307E
:101B4000704700BF00E100E00138B0F1807F0AD2A9
:101B5000064B5860064AF02182F823100020986056
:101B600007221A6070470120704700BF10E000E0B4
:101B700000ED00E0042805D0054A136823F00403B3
:101B800013607047024A136843F004031360704700
:101B900010E000E030B405682C6824F480242C6048
:101BA000046863608368402B05D00368996003680C
:101BB000DA6030BC704703689A600368D960F8E760
:101BC0000268D3B2103B0B49A1FB03131B090A495E
:101BD000C95CC165032B06D822F47F7222F0030290
:101BE0008265806D704722F47F7222F00302043216
:101BF0008265F6E7ABAAAAAAD8BF0008836A826901
:101C000092B9012B0AD01BB1022B01D000207047E2
:101C1000C36A13F0807F2CD100207047C36AB3F1F0
:101C2000C07F28D000207047B2F5005F05D0022B9E
:101C300029D9032B15D000207047032B03D8DFE8E8
:101C400003F01C041C0A00207047C36A13F0807F55
:101C500015D100207047C36AB3F1C07F11D00020B6
:101C60007047C36A13F0807F01D0012070470020C5
:101C70007047012070470120704701207047012004
:101C800070470120704701207047000070B504467E
:101C9000FFF7EEFE002C5BD00546002384F83430BD
:101CA000022384F835302268136823F0010313609F
:101CB00023681A6812F0010F0AD0FFF7D9FE401B03
:101CC0000528F5D920236365032084F8350070BD0D
:101CD0001A68204810406168A2680A43E1680A4314
:101CE00021690A4361690A43A1690A43E1690A4318
:101CF000216A0A430243616A04291ED01A602668D9
:101D0000756925F00705636A1D43042B07D1A36A93
:101D10001D43E36A1BB12046FFF770FF90B9756160
:101D20002046FFF74DFFE26D3F2393408360002084
:101D30006065012384F83530C9E7E16A206B01430F
:101D40000A43DBE740236365012084F83500BEE7E2
:101D50000120BCE73F8010F038B5856D90F8344025
:101D6000012C31D0012480F8344090F83540E4B2A1
:101D7000012C04D0002380F83430022038BD044602
:101D8000022084F83500002060652046FFF702FF3E
:101D9000E26D3F239340AB602268136843F0160363
:101DA00013602268536943F080035361236C23B1AD
:101DB0002268136843F0080313602268136843F035
:101DC000010313600020D9E70220D7E7F0B583B004
:101DD000044600230193724B1D68724BA3FB05352B
:101DE000AD0A876D3E68C26D08239340334210D020
:101DF00003681A6812F0040F0BD01A6822F004026C
:101E00001A60C26D08239340BB60436D43F0010329
:101E10004365E26D01239340334209D02268526941
:101E200012F0800F04D0BB60636D43F00203636562
:101E3000E26D04239340334209D02268126812F005
:101E4000020F04D0BB60636D43F004036365E26D71
:101E500010239340334224D02268126812F0080FF6
:101E60001FD0BB6023681A6812F4802F0DD01B6846
:101E700013F4002F04D1236C9BB12046984710E047
:101E8000A36C73B1204698470BE01A6812F4807F68
:101E900003D11A6822F008021A60236C0BB12046A5
:101EA0009847E26D20239340334255D02268126850
:101EB00012F0100F50D0BB6094F83530DBB2052B18
:101EC0000ED023681A6812F4802F33D01B6813F4E5
:101ED000002F2AD1636C002B3ED0204698473BE070
:101EE0002268136823F0160313602268536923F0F5
:101EF00080035361236CA3B12268136823F00803A5
:101F00001360E26D3F239340BB60002384F83430BC
:101F1000012384F83530236D002B3FD020469847AD
:101F20003CE0A36C002BE7D1EBE7E36BA3B12046C9
:101F3000984711E01A6812F4807F09D11A6822F0DC
:101F400010021A60002384F83430012384F83530FD
:101F5000E36B0BB120469847636DFBB1636D13F0E3
:101F6000010F17D0052384F835302268136823F059
:101F700001031360019B01330193AB4204D8236832
:101F80001B6813F0010FF5D1002384F834300123CE
:101F900084F83530E36C0BB12046984703B0F0BDB0
:101FA00020000020B5814E1B00230F2B00F2D180B2
:101FB000F0B482B039E0062200E00022B2403A4399
:101FC0000234644E46F82420634A1468EA4302EA65
:101FD00004064F6817F4803F01D045EA04065E4CC2
:101FE0002660646802EA04064F6817F4003F01D0D7
:101FF00045EA0406584C6660A46802EA04064F6885
:1020000017F4801F01D045EA0406534CA660E4682B
:1020100022404E6816F4001F01D045EA04024E4CDF
:10202000E26001330F2B00F2918001229A400C688C
:1020300004EA0205AA42F4D14C68022C01D0122C09
:1020400010D1DE08083650F826C003F00704A700B8
:102050000F24BC402CEA040C0C69BC4044EA0C047C
:1020600040F8264004685F000326BE40F64306EAB7
:10207000040C4C6804F00304BC4044EA0C04046003
:102080004C6804F1FF3CBCF1010F03D9112C01D0C5
:10209000122C10D1846806EA040CCC68BC4044EAD7
:1020A0000C048460446824EA02024C68C4F30014FF
:1020B0009C4014434460C26816408A68BA40324368
:1020C000C2604A6812F0805FABD000220192234ABE
:1020D000546C44F480445464526C02F48042019283
:1020E000019A9C08A61C1B4A52F8267003F00302B2
:1020F00096000F22B24027EA0207194A90423FF4A5
:102100005CAF02F58062904216D002F58062904288
:1021100014D002F58062904212D002F580629042A3
:1021200010D002F5806290420ED002F5806290429B
:102130003FF441AF072241E701223FE702223DE79A
:1021400003223BE7042239E7052237E702B0F0BC5F
:102150007047704700380140003C014000380240A1
:102160000000024012B90904816170478161704723
:1021700003685A6912F4806F0DD06FF480625A615F
:102180000423036400230363202280F83D2080F8A9
:102190003C300120704700207047F8B506460C46D9
:1021A00017461D461EE02DB1FFF762FC069BC01AC4
:1021B000A84217D900233363202286F83D2086F8F1
:1021C0003E3086F83C3003201AE033685B6924EA2D
:1021D00003039BB2B3FA83F35B099F420FD1B5F1BE
:1021E000FF3FE0D1C4F30743012BEED033689B6976
:1021F00024EA03039BB2B3FA83F35B09EDE7002003
:10220000F8BDF8B504460D4616461F4632E01A687A
:1022100042F400721A6023686FF480625A610423EA
:10222000236400232363202284F83D2084F83C307B
:1022300001202DE026B1FFF71BFCC01BB04219D9CD
:1022400000232363202284F83D2084F83C300320BF
:102250001EE023685B6925EA03039BB2003318BFC5
:102260000123A3B123685A6912F4806FCFD1B6F16C
:10227000FF3FDFD1C5F30743012BEAD023689B69F9
:1022800025EA03039BB2003318BF0123E9E70020CE
:10229000F8BD70B504460D46164623685B6913F019
:1022A000800F19D12046FFF763FFB8B9B5F1FF3FA2
:1022B000F3D025B1FFF7DCFB801BA842EDD9236CDE
:1022C00043F02003236400232363202284F83D206D
:1022D00084F83C30032000E0002070BD0120FCE7C2
:1022E0002DE9F04184B004460E46174698460B9DF2
:1022F0000268136843F48073136000950A9B002200
:102300004FF00111FFF749FF002847D1236806F07D
:10231000FE061E612B460A9A26492046FFF771FFEA
:1023200020B1236C042B3ED1012338E0002303931A
:1023300023685A6903929B690393039B2A460A996F
:102340002046FFF7A6FF034648B1236C042B2CD18F
:102350002268136843F40073136001231FE0B8F18F
:10236000010F13D023683A0A1A612A460A992046B7
:10237000FFF78FFF034668B1236C042B17D1226847
:10238000136843F400731360012308E02268FFB26E
:10239000176104E02268FFB2176100E003231846CA
:1023A00004B0BDE8F0810323F9E70323F7E7032333
:1023B000F5E700BF020001002DE9F04184B00446BA
:1023C0000E46174698460B9D0268136843F48063D7
:1023D00013600268136843F48073136000950A9BCE
:1023E00000224FF00111FFF7D8FE002874D1F6B299
:1023F000236806F0FE021A612B460A9A3F492046DE
:10240000FFF7FFFE20B1236C042B6AD1012364E0A7
:102410000023039323685A6903929B690393039BE8
:102420002A460A992046FFF734FF48B1236C042B53
:1024300059D12268136843F40073136001234CE000
:10244000B8F1010F12D12368FFB21F612A460A9921
:102450002046FFF71EFF00B3236C042B47D12268F0
:10246000136843F400731360012336E023683A0ACB
:102470001A612A460A992046FFF70BFF48B1236CE0
:10248000042B32D12268136843F4007313600123D4
:1024900023E02368FFB21F61D8E72268136843F482
:1024A0008073136000950A9B00224FF001112046B3
:1024B000FFF773FEE8B9236846F001061E612B465C
:1024C0000A9A0E492046FFF79CFE034628B1236C6A
:1024D000042B10D1012300E00323184604B0BDE80B
:1024E000F0810323F9E70323F7E70323F5E7032349
:1024F000F3E70323F1E70323EFE700BF0200010046
:1025000070B504460D46164623685B6913F0040F48
:1025100019D12046FFF72CFEB8B9B5F1FF3FF3D033
:1025200025B1FFF7A5FA801BA842EDD9236C43F033
:102530002003236400232363202284F83D2084F8B1
:102540003C30032000E0002070BD0120FCE770B5A6
:1025500005460C4616462B685A6912F0400F22D1E8
:102560005A6912F0100F11D124B1FFF781FA801BC4
:10257000A042F0D92B6C43F020032B64202385F874
:102580003D30002385F83C30032070BD6FF0100211
:102590005A6100232B642B63202285F83D2085F8A7
:1025A0003C300120F1E70020EFE70000002800F0B8
:1025B000828010B5044690F83D30002B41D0242392
:1025C00084F83D302268136823F00103136000F0A3
:1025D0009FFB3A4BA3FB00239B0C2268536061686E
:1025E000374A914232D80133226813626368344A11
:1025F000934235D85B00B0FBF3F0C0F30B03032B21
:1026000000D804202368D861E369216A22680B435B
:1026100013602369E16822680B4393606369A169D1
:1026200022680B43D3602268136843F001031360F0
:1026300000202064202384F83D30206384F83E008D
:1026400010BD80F83C3005F08BFDB8E74FF4967272
:1026500002FB03F31B4AA2FB03239B090133C3E7DD
:10266000A16889B903EB4302B0FBF2F2C2F30B029B
:10267000B2FA82F25209E2B991B903EB4303B0FB1B
:10268000F3F040F40040BDE703EB830202EB82026B
:10269000B0FBF2F2C2F30B02B2FA82F25209EAE79D
:1026A00003EB830303EB8303B0FBF3F040F4404000
:1026B000A8E70120A6E70120704700BF83DE1B4387
:1026C000A0860100D34D62102DE9F04182B004468E
:1026D0000E4617469846FFF7CBF994F83D30DBB22B
:1026E000202B04D00223184602B0BDE8F081054635
:1026F00000901923012251492046FFF74EFD002882
:1027000040F0938094F83C30012B00F0908001233E
:1027100084F83C3023681A6812F0010F03D11A685C
:1027200042F001021A602268136823F40063136008
:10273000212384F83D30402384F83E300023236475
:10274000089B6362BDF8243063853D4BE362638D73
:10275000238501950A9B009343463A46314620461D
:10276000FFF7BEFDB0B1236C042B04D1002384F825
:102770003C300123B7E7002384F83C300323B2E761
:10278000236C042B55D12268136843F40073136043
:102790000123A8E7238D002B28D02A460A9920463A
:1027A000FFF777FD0028EBD1636A5A1C626222684A
:1027B0001B781361238D013B9BB22385628D013A07
:1027C00092B262852268516911F0040FE2D0002BA9
:1027D000E0D0636A591C61621B781361238D013B51
:1027E0002385638D013B9BB26385D3E72A460A9913
:1027F0002046FFF785FE034648B1236C042B1AD10F
:102800002268136843F40073136001236BE72168A7
:102810000A6842F400720A60202284F83D200022F7
:1028200084F83E2084F83C205DE702235BE7022326
:1028300059E7032357E7032355E700BF02001000C1
:102840000000FFFF2DE9F04186B004460E46174612
:102850009846FFF70DF994F83D30DBB2202B04D0F9
:102860000226304606B0BDE8F081054600901923E7
:1028700001228B492046FFF790FC002840F04B8155
:1028800094F83C30012B00F04881012384F83C305F
:1028900023681A6812F0010F03D11A6842F001028E
:1028A0001A602268136823F400631360222384F8FB
:1028B0003D30402384F83E30002323640C9B636248
:1028C000BDF834306385774BE362638D23850195D2
:1028D0000E9B009343463A4631462046FFF76CFD77
:1028E000064660B1236C042B04D1002384F83C30ED
:1028F0000126B6E7002384F83C300326B1E7238D98
:102900005BB9029323685A6902929A690292029A09
:102910001A6842F400721A6075E0012B0AD0022B8B
:102920001AD00023059323685A6905929B69059381
:10293000059B68E02268136823F48063136000231A
:10294000039323685A6903929A690392039A1A6857
:1029500042F400721A6056E02268136823F4806320
:1029600013602268136843F4006313600023049328
:1029700023685A6904929B690493049B43E02A46A6
:102980000E992046FFF7E3FD68B923681A69636A68
:10299000591C61621A70238D013B2385638D013BB5
:1029A0009BB263852FE0236C202B01D0012658E7D2
:1029B000032656E700950E9B00223B492046FFF771
:1029C000ECFB002840F0AB802268136843F40073EE
:1029D000136023681A69636A591C61621A70238D37
:1029E000013B2385638D013B9BB2638523681A6994
:1029F000636A591C61621A70238D013B2385638DC4
:102A0000013B9BB26385238D002B7BD0032B4DD8DC
:102A1000012BB4D0022BCDD000950E9B0022224971
:102A20002046FFF7BAFB00287BD12268136823F405
:102A30008063136023681A69636A591C61621A70A3
:102A4000238D013B2385638D013B9BB263850095FC
:102A50000E9B002214492046FFF79FFB002862D1FD
:102A60002268136843F40073136023681A69636A69
:102A7000591C61621A70238D013B2385638D013BD4
:102A80009BB2638523681A69636A591C61621A7074
:102A9000238D013B2385638D013B9BB26385B2E7A8
:102AA000020010000000FFFF040001002A460E99FA
:102AB0002046FFF74CFDF0B923681A69636A591C78
:102AC00061621A70238D013B2385638D013B9BB2AC
:102AD000638523685A6912F0040F94D01A69636AF7
:102AE000591C61621A70238D013B2385638D013B64
:102AF0009BB2638587E7236C202B01D00126B0E6CB
:102B00000326AEE6202384F83D30002384F83E30CF
:102B100084F83C30A5E60226A3E60226A1E60326B9
:102B20009FE603269DE603269BE600BF10B582B014
:102B300000230193194B1A6C42F080521A641B6CEB
:102B400003F080530193019B154B01221A60FEF79D
:102B50008FFF0446134B5B6813F4803F08D1FEF7E8
:102B600087FF001BB0F57A7FF4D9032002B010BDB7
:102B70000D4B01221A60FEF77BFF0446094B5B6890
:102B800013F4003F07D1FEF773FF001BB0F57A7F07
:102B9000F4D90320EAE70020E8E700BF003802404C
:102BA00040000E420070004044000E42002800F039
:102BB0009D8070B504464F4B1B6803F00F038B429A
:102BC00009D2CBB24B4A1370136803F00F038B4248
:102BD00001D0012070BD236813F0020F17D013F04D
:102BE000040F04D0444A936843F4E053936023688D
:102BF00013F0080F04D0404A936843F46043936095
:102C00003D4A936823F0F003A068034393600D46A8
:102C1000236813F0010F32D06368012B21D09A1E74
:102C2000012A25D9344A126812F0020F60D03249C5
:102C30008A6822F0030213438B60FEF719FF0646F1
:102C40002D4B9B6803F00C036268B3EB820F16D028
:102C5000FEF70EFF801B41F288339842F0D9032023
:102C6000B8E7254A126812F4003FE0D10120B1E72D
:102C7000214A126812F0007FD9D10120AAE71D4B2A
:102C80001B6803F00F03AB4209D9EAB2194B1A7063
:102C90001B6803F00F03AB4201D001209AE72368C1
:102CA00013F0040F06D0144A936823F4E053E1684C
:102CB0000B439360236813F0080F07D00E4A936804
:102CC00023F46043216943EAC103936000F05EF896
:102CD000094B9B68C3F30313084AD35CD840084BE5
:102CE0001860002005F03EFB002073E701207047CC
:102CF00001206FE7003C0240003802405CC500083C
:102D000020000020014B1868704700BF2000002001
:102D100008B5FFF7F7FF044B9B68C3F38223034A10
:102D2000D35CD84008BD00BF003802406CC5000825
:102D300008B5FFF7E7FF044B9B68C3F34233034A30
:102D4000D35CD84008BD00BF003802406CC5000805
:102D50000F2303600B4B9A6802F0030242609A68EB
:102D600002F0F00282609A6802F4E052C2609B684E
:102D7000DB0803F4E0530361034B1B6803F00F030C
:102D80000B60704700380240003C02402DE9F04BD8
:102D90005C4B9B6803F00C03082B07D00C2B5BD01B
:102DA000042B00F0AD805848BDE8F08B554B5A68B5
:102DB00002F03F025B6813F4800F2AD0514B5B682E
:102DC000C3F388131E4600275C010025E41A65EB57
:102DD0000705A90141EA9461A001001B61EB05010F
:102DE000CB0043EA5073C400A01943EB07014B0228
:102DF00043EAD0534402204619460023FDF7ECFE77
:102E0000404B5B68C3F3014301335B00B0FBF3F05D
:102E1000CAE73C4B5B68C3F388131E4600275C017E
:102E20000025E41A65EB0705A90141EA9461A001B8
:102E3000001B61EB0501CB0043EA5073C400A019ED
:102E400043EB07018B0243EA905384022046194664
:102E50000023FDF7C1FED3E72A4B5A6802F03F0278
:102E60005B6813F4800F28D0264B5B68C3F388138C
:102E70001E4600275C010025E41A65EB0705A90141
:102E800041EA9461A001001B61EB0501CB0043EA1C
:102E90005073C400A01943EB07014B0243EAD0531F
:102EA0004402204619460023FDF796FE154B5B6849
:102EB000C3F30273B0FBF3F076E7124B5B68C3F326
:102EC00088131E4600275C010025E41A65EB070500
:102ED000A90141EA9461A001001B61EB0501CB004F
:102EE00043EA5073C400A01943EB07018B0243EA85
:102EF00090538402204619460023FDF76DFED5E766
:102F0000024851E7003802400024F40000127A0021
:102F100070B582B00446036813F0010F41D0A64B90
:102F20009B6803F00C03042B32D0A34B9B6803F087
:102F30000C03082B27D0A04B9B6803F00C030C2B31
:102F400059D06368B3F5803F5BD0B3F5A02F5ED056
:102F5000994B1A6822F480321A601A6822F480228F
:102F60001A606368002B5CD0FEF782FD0546924B29
:102F70001B6813F4003F14D1FEF77AFD401B642850
:102F8000F5D903209DE18C4B5B6813F4800FD2D000
:102F9000894B1B6813F4003F03D06368002B00F0DB
:102FA0008D81236813F0020F67D0834B9B6813F069
:102FB0000C0F4AD0804B9B6803F00C03082B3FD0CA
:102FC0007D4B9B6803F00C030C2B48D0E368002B6F
:102FD00074D07A4B01221A60FEF74AFD0546764B03
:102FE0001B6813F0020F60D1FEF742FD401B022860
:102FF000F5D9032065E1704B5B6813F4800FA0D016
:10300000C6E76D4A136843F480331360A9E76A4B3F
:103010001A6842F480221A601A6842F480321A60F8
:103020009FE7FEF725FD0546634B1B6813F4003F41
:10303000B7D0FEF71DFD401B6428F5D9032040E101
:103040005D4B5B6813F4800FBAD15B4B1B6813F0C8
:10305000020F0AD0E368012B07D0012031E1564B63
:103060005B6813F4800FB1D1EFE7534A136823F084
:10307000F803216943EAC1031360236813F0080FC2
:1030800040D0636963B34E4B01221A60FEF7F0FC37
:103090000546494B5B6F13F0020F33D1FEF7E8FC96
:1030A000401B0228F5D903200BE1434A136823F0A3
:1030B000F803216943EAC1031360DEE73F4B0022B6
:1030C0001A60FEF7D5FC05463B4B1B6813F0020F58
:1030D000D3D0FEF7CDFC401B0228F5D90320F0E049
:1030E000374B00221A60FEF7C3FC0546324B5B6F7C
:1030F00013F0020F06D0FEF7BBFC401B0228F5D9E7
:103100000320DEE0236813F0040F79D02A4B1B6CF8
:1031100013F0805F33D100230193274B1A6C42F0E8
:1031200080521A641B6C03F080530193019B0125AC
:10313000244B1B6813F4807F23D0A368012B34D069
:10314000052B41D01C4B1A6F22F001021A671A6F2F
:1031500022F004021A67A368002B3FD0FEF788FC18
:103160000646154B1B6F13F0020F48D1FEF780FC8B
:10317000801B41F288339842F3D90320A1E0002557
:10318000D6E7104A136843F480731360FEF770FCAF
:1031900006460C4B1B6813F4807FCED1FEF768FC0B
:1031A000801B0228F5D903208BE0034A136F43F0FC
:1031B00001031367CFE700BF003802400000474219
:1031C000800E474200700040404B1A6F42F00402EC
:1031D0001A671A6F42F001021A67BCE7FEF748FC53
:1031E00006463A4B1B6F13F0020F08D0FEF740FC67
:1031F000801B41F288339842F3D9032061E0E5B99E
:10320000A369002B5CD0314A926802F00C02082AB4
:1032100059D0022B17D02E4B00221A60FEF728FC43
:1032200004462A4B1B6813F0007F45D0FEF720FCB4
:10323000001B0228F5D9032043E0244A136C23F035
:1032400080531364DCE7224B00221A60FEF710FC67
:1032500005461E4B1B6813F0007F06D0FEF708FCE6
:10326000401B0228F5D903202BE0E369226A1343AF
:10327000626A43EA8213A26A5208013A43EA0243AD
:10328000E26A43EA0263226B43EA02730F4A536025
:103290000F4B01221A60FEF7EBFB04460B4B1B6839
:1032A00013F0007F06D1FEF7E3FB001B0228F5D9DF
:1032B000032006E0002004E0002002E0012000E0FE
:1032C000002002B070BD0120FBE700BF00380240C3
:1032D0006000474270470268D36843F00103D3603F
:1032E0000268136843F001031360002070477047C1
:1032F00070477047704710B5044603681A6912F0AA
:10330000020F11D0DA6812F0020F0DD06FF0020236
:103310001A610123037603689B6913F0030F70D0D1
:10332000FFF7E6FF0023237623681A6912F0040FE3
:1033300012D0DA6812F0040F0ED06FF004021A6196
:103340000223237623689B6913F4407F5FD02046D5
:10335000FFF7CEFF0023237623681A6912F0080FC7
:1033600012D0DA6812F0080F0ED06FF008021A615E
:10337000042323762368DB6913F0030F4ED0204625
:10338000FFF7B6FF0023237623681A6912F0100FA7
:1033900012D0DA6812F0100F0ED06FF010021A611E
:1033A000082323762368DB6913F4407F3DD0204651
:1033B000FFF79EFF0023237623681A6912F0010F9E
:1033C00003D0DA6812F0010F36D123681A6912F0BF
:1033D000800F03D0DA6812F0800F34D123681A69A5
:1033E00012F0400F03D0DA6812F0400F32D1236898
:1033F0001A6912F0200F03D0DA6812F0200F30D1D2
:1034000010BDFFF774FF2046FFF773FF8AE72046E1
:10341000FFF76DFF2046FFF76CFF9BE72046FFF7A5
:1034200066FF2046FFF765FFACE72046FFF75FFF2A
:103430002046FFF75EFFBDE76FF001021A612046EC
:1034400004F0BAFEC1E76FF080021A61204600F076
:1034500089F8C3E76FF040021A612046FFF74AFF80
:10346000C5E76FF020021A61204600F07AF8C7E73E
:1034700003682E4A904212D0B0F1804F0FD0A2F5CF
:103480007C4290420BD002F58062904207D002F558
:103490008062904203D002F57842904203D123F03B
:1034A00070034A681343214A90422AD0B0F1804FFA
:1034B00027D0A2F57C42904223D002F58062904250
:1034C0001FD002F5806290421BD002F578429042F4
:1034D00017D002F57052904213D002F580629042EC
:1034E0000FD002F5806290420BD0A2F59832904244
:1034F00007D002F58062904203D002F580629042CC
:1035000003D123F44073CA68134303608B68C3621A
:103510000B688362054B984203D003F580639842A1
:1035200001D10B690363012343617047000001402F
:10353000A8B110B5044690F839305BB1022384F885
:103540003930211D2068FFF793FF012384F83930BB
:10355000002010BD80F83830FFF7BCFEEEE70120F8
:103560007047704770470268D36823F0C003D36088
:10357000202380F8393070470268D36823F49073B1
:10358000D3600268536923F001035361202380F85C
:103590003A3070472DE9F843044601680A6922F47D
:1035A0004052C36813430B610168CA6822F4164293
:1035B00022F00C0283680069034360690343E069F9
:1035C00003431343CB6021684A6922F44072A36924
:1035D00013434B61E369B3F5004F60D02368B84AE9
:1035E000934200F0148102F58062934200F00F8153
:1035F000FFF78EFB00EB800000EB80006568AD00FC
:10360000B0FBF5F5AF4FA7FB05356D092E01FFF7B0
:103610007FFB00EB800000EB80006568AD00B0FB35
:10362000F5F9FFF775FB00EB800000EB80006568A3
:10363000AD00B0FBF5F5A7FB05356D094FF064084B
:1036400008FB15952D013235A7FB05356D0905F0F1
:10365000F0053544FFF75CFB00EB800000EB8000D9
:103660006668B600B0FBF6F6FFF752FB00EB800091
:1036700000EB800063689B00B0FBF3F0A7FB003019
:10368000400908FB10684FEA081808F13208A7FB48
:103690000837C7F3431723682F449F600DE1236861
:1036A000874A93425BD002F58062934257D0FFF77E
:1036B0002FFB00EB800000EB800065686D00B0FB25
:1036C000F5F5804FA7FB05356D092E01FFF720FBAF
:1036D00000EB800000EB800065686D00B0FBF5F941
:1036E000FFF716FB00EB800000EB800065686D00C3
:1036F000B0FBF5F5A7FB05356D094FF0640808FB35
:103700001595ED003235A7FB05356D096D0005F403
:10371000F8753544FFF7FCFA00EB800000EB800001
:1037200066687600B0FBF6F6FFF7F2FA00EB800071
:1037300000EB800063685B00B0FBF3F3A7FB03239F
:103740005B0908FB13684FEAC80808F13208A7FBB9
:103750000837C7F3421723682F449F60ADE0FFF797
:10376000E7FA00EB800000EB800065686D00B0FBBD
:10377000F5F5544FA7FB05356D092E01FFF7D8FA73
:1037800000EB800000EB800065686D00B0FBF5F990
:10379000FFF7CEFA00EB800000EB800065686D005B
:1037A000B0FBF5F5A7FB05356D094FF0640808FB84
:1037B0001595ED003235A7FB05356D096D0005F453
:1037C000F8753544FFF7B4FA00EB800000EB800099
:1037D00066687600B0FBF6F6FFF7AAFA00EB800009
:1037E00000EB800063685B00B0FBF3F3A7FB0323EF
:1037F0005B0908FB13684FEAC80808F13208A7FB09
:103800000837C7F3421723682F449F6055E0FFF73E
:103810008FFA00EB800000EB80006568AD00B0FB24
:10382000F5F5284FA7FB05356D092E01FFF780FA46
:1038300000EB800000EB80006568AD00B0FBF5F99F
:10384000FFF776FA00EB800000EB80006568AD00C2
:10385000B0FBF5F5A7FB05356D094FF0640808FBD3
:1038600015952D013235A7FB05356D0905F0F005DD
:103870003544FFF75DFA00EB800000EB80006668DE
:10388000B600B0FBF6F6FFF753FA00EB800000EB52
:10389000800063689B00B0FBF3F0A7FB0030400999
:1038A00008FB10684FEA081808F13208A7FB083730
:1038B000C7F3431723682F449F60BDE8F88300BF18
:1038C000001001401F85EB512DE9F04105460F46E0
:1038D00016469846069C2B681B6837EA03030CBF04
:1038E00001230023B3421DD1B4F1FF3FF3D02CB12B
:1038F000FEF7BEF8A0EB0800A042ECD92A68D36816
:1039000023F4D073D3602A68536923F00103536111
:10391000202385F8393085F83A30002385F838308F
:10392000032000E00020BDE8F08158B310B5044644
:1039300090F839300BB3242384F839302268D368E7
:1039400023F40053D3602046FFF724FE2268136956
:1039500023F4904313612268536923F02A035361CF
:103960002268D36843F40053D3600020E06320232F
:1039700084F8393084F83A3010BD80F8383004F0DB
:10398000ABFDD8E7012070472DE9F04182B01E461B
:1039900090F83930DBB2202B55D104460D469046C5
:1039A000002955D0002A55D090F83830012B53D03B
:1039B000012380F838300023C363212380F8393095
:1039C000FEF756F80746A4F82480A4F8268010E0F5
:1039D00000963B46002280212046FFF775FF002815
:1039E0003CD12B882268C3F3080353602369C3B911
:1039F0000235E38C9BB2B3B1E38C013B9BB2E38411
:103A0000A368B3F5805FE3D000963B460022802197
:103A10002046FFF759FF18BB2A7823685A60013502
:103A2000E7E70135E5E700963B46002240212046C6
:103A3000FFF74AFF0346A8B9202284F83920002264
:103A400084F8382000E00223184602B0BDE8F08177
:103A50000123F9E70123F7E70223F5E70323F3E75F
:103A60000323F1E70323EFE730B583B090F83A4042
:103A7000E4B2202C3DD100293ED0002A3ED090F85F
:103A80003830012B3CD013460A460446012180F809
:103A90003810826283850025C563222180F83A10A0
:103AA000416B1848C863616B17480864616B17481D
:103AB000C864616B0D6521680431606BFEF74CF9D9
:103AC000019523681A6801925A680192019A84F854
:103AD0003850DA6842F48072DA602268536943F041
:103AE000010353612268536943F040035361284640
:103AF00000E0022003B030BD0120FBE70120F9E720
:103B00000220F7E7133B0008533B00085F3B000827
:103B1000704708B5836B0268126812F4807F13D176
:103B20000022DA851968CA6822F48072CA601968AE
:103B30004A6922F001024A6119684A6922F040028A
:103B40004A61202283F83A201846FFF7E1FF08BDBA
:103B5000704708B5806BFFF7FBFF08BD704710B5D5
:103B6000846B23685A6994F83930DBB2212B10D06A
:103B700023685A6902F0400294F83A30DBB2222BF3
:103B800011D0E36B43F01003E3632046FFF7E6FF39
:103B900010BD02F08002002AEAD00023E384204610
:103BA000FFF7E1FCE4E7002AEBD00023E3852046A1
:103BB000FFF7E2FCE5E70000012800D970472DE996
:103BC000F04188B00546002400942E4B1A6B42F059
:103BD00001021A631A6B02F001020092009A01942A
:103BE0001A6B42F002021A631A6B02F0020201928F
:103BF000019A02941A6B42F004021A631B6B03F0E1
:103C000004030293029B4FF4E06303930490059432
:103C10000694DFF87C8003A94046FEF7C5F94FF40F
:103C200087630393049505940694174F03A93846B8
:103C3000FEF7BAF980230393049505940694134E76
:103C400003A93046FEF7B0F9132303930125049529
:103C50000594069403A94046FEF7A6F9039504953A
:103C60000594069403A93846FEF79EF902230393B0
:103C700004950594069403A93046FEF795F908B01B
:103C8000BDE8F08100380240000402400008024014
:103C9000000002400028C0F2E4820029C0F2E18264
:103CA000AF4BB3F90030834240F3DB82AC4BB3F946
:103CB00002308B4240F3D582F0B4AA4B4FF48034EB
:103CC0009C61A74B1B79022B27D0032B2DD0012BF6
:103CD0001ED080B2A44B4FF480149C615C6924F424
:103CE000E0642404240C5C619E4D6C6924F48764B8
:103CF0002404240C6C6105F580656C6924F0800453
:103D00002404240C6C614FF400349C61022314E001
:103D1000C1F1EF03014618B2DBE7C0F1EF0000B2DA
:103D2000C1F59F71013109B2D3E7C0F59F7301332B
:103D3000084619B2CDE700BF013B002BFBD102239F
:103D4000894CA36101E000BF013B002BFBD1864CF5
:103D5000636923F4E0631B041B0C6361814D6B6991
:103D600023F487631B041B0C43F010036B6105F500
:103D700080656B6923F080031B041B0C6B614FF49F
:103D80000033A361022301E000BF013B002BFBD104
:103D90000223754CA36101E000BF013B002BFBD166
:103DA000714E1023B361030A756925F4E0652D0493
:103DB0002D0C5C0204F4007425431C0204F480649E
:103DC00025435F0007F4807425437561654D6C6978
:103DD00024F487642404240C03F0080C44EA0C0443
:103DE00007F020073C435F1007F010073C431F011A
:103DF00007F480673C436C615C4F7D6925F080056A
:103E00002D042D0C9C0104F080042C437C614FF4A4
:103E10000033B361022301E000BF013B002BFBD163
:103E20000223514CA36101E000BF013B002BFBD1F9
:103E3000C3B24D4D686920F4E0600004000C5C02E0
:103E400004F4007420431C0204F4806420435E00E8
:103E500006F4807420436861424F7C6924F48764CF
:103E60002404240C03F00800044306F02006344325
:103E7000581000F010000443180100F4806004435F
:103E80007C613A4C606920F080000004000C9B01CA
:103E900003F08003034363614FF40033AB610223FB
:103EA00001E000BF013B002BFBD102232E488361C0
:103EB00001E000BF013B002BFBD189B22A4B4FF43C
:103EC00080109861586920F4E0600004000C58618B
:103ED000244C606920F487600004000C606104F5E4
:103EE0008064606920F080000004000C60614FF481
:103EF00000309861022301E000BF013B002BFBD1A1
:103F000002231948836101E000BF013B002BFBD174
:103F10001548436923F4E0631B041B0C43F400734E
:103F20004361104C636923F487631B041B0C43F04B
:103F30001003636104F58064636923F080031B044C
:103F40001B0C63614FF400338361022301E000BF67
:103F5000013B002BFBD10223034883610AE000BF31
:103F60001402002000040240000002400008024049
:103F700000BF013B002BFBD1BA4D1023AB610B0AF4
:103F80006C6924F4E0642404240C580200F40070EA
:103F90000443180200F4806004435E0006F480705D
:103FA00004436C61B04F786920F487600004000C12
:103FB00003F00804204306F0200630435C1004F0B0
:103FC000100420431C0104F4806420437861A74E50
:103FD000746924F080042404240C980100F080000B
:103FE000204370614FF40033AB61022301E000BF56
:103FF000013B002BFBD102239A48836101E000BF03
:10400000013B002BFBD1CBB2964C616921F4E061FE
:104010000904090C580200F400700143180200F46E
:10402000806001435D0005F48070014361618E4E44
:10403000706920F487600004000C03F00801084355
:1040400005F020052843591001F01001084319011B
:1040500001F48061084370618448416921F0800166
:104060000904090C9B0103F080030B4343614FF4E7
:104070000033A361022301E000BF013B002BFBD111
:10408000022378498B6101E000BF013B002BFBD18B
:10409000744B4FF480119961596921F4E06109046E
:1040A000090C59617048416921F487610904090CC0
:1040B000416100F58060416921F080010904090C2B
:1040C00041614FF400319961022301E000BF013BDF
:1040D000002BFBD1022363498B6101E000BF013B50
:1040E000002BFBD15F494B6923F4E0631B041B0CDD
:1040F0004B615D48436923F487631B041B0C43F049
:104100001003436100F58060436923F080031B04C2
:104110001B0C43F0800343614FF400338B61022397
:1041200001E000BF013B002BFBD102234D498B6115
:1041300001E000BF013B002BFBD14A4C1023A361DF
:10414000130A606920F4E0600004000C590201F4D5
:1041500000710843190201F4806108435D0005F411
:10416000807108436061404E716921F487610904E0
:10417000090C03F00800014305F0200529435810FD
:1041800000F010000143180100F4806001437161E8
:104190003648416921F080010904090C9B0103F0B4
:1041A00080030B4343614FF40033A361022301E01A
:1041B00000BF013B002BFBD102232A498B6101E0A8
:1041C00000BF013B002BFBD1D2B22648416921F44C
:1041D000E0610904090C530203F40073194313024C
:1041E00003F480631943540004F48073194341615C
:1041F0001D4D6B6923F487631B041B0C02F008013F
:104200000B4304F020042343511001F010010B4331
:10421000110101F480610B436B6114494B6923F078
:1042200080031B041B0C920102F080021A434A61B6
:104230004FF400338361022301E000BF013B002BF8
:10424000FBD10223074A936101E000BF013B002B31
:10425000FBD103F1804303F5013301229A61F0BCE5
:10426000704770470000024000040240000802400E
:10427000F0B5040AC2B2B44D4FF48033AB61B34B16
:104280004FF480169E615E6926F4E0663604360CB3
:104290005E616E6926F487663604360C6E61AC4E3C
:1042A000756925F080052D042D0C75614FF40035DE
:1042B0009D61022301E000BF013B002BFBD10223E3
:1042C000A24DAB6101E000BF013B002BFBD19F4D34
:1042D0006B6923F4E0631B041B0C6B619A4E7369DA
:1042E00023F487631B041B0C43F01003736106F572
:1042F0008066736923F080031B041B0C43F080036A
:1043000073614FF40033AB61022301E000BF013B56
:10431000002BFBD102238D4DAB6101E000BF013BBF
:10432000002BFBD1894E1023B361030A776927F470
:10433000E0673F043F0C5D0205F400752F431D024A
:1043400005F480652F434FEA430C0CF480752F432E
:1043500077617D4F7D6925F487652D042D0C03F071
:10436000080E45EA0E050CF0200C45EA0C054FEA54
:10437000630C0CF0100C45EA0C054FEA031C0CF41E
:10438000806C45EA0C057D61DFF8C4C1DCF814706F
:1043900027F080073F043F0C9D0105F080053D4359
:1043A000CCF814504FF40033B361022301E000BF96
:1043B000013B002BFBD10223644DAB6101E000BF48
:1043C000013B002BFBD1C3B2604E706920F4E0606A
:1043D0000004000C5D0205F4007528431D0205F47D
:1043E000806528435F0007F4807528437061564854
:1043F000456925F487652D042D0C03F0080C45EA6A
:104400000C0507F020073D435F1007F010073D4300
:104410001F0107F480673D4345614D4D686920F0F9
:1044200080000004000C9B0103F0800303436B61D8
:104430004FF40033B361022301E000BF013B002BC6
:10444000FBD102234148836101E000BF013B002B07
:10445000FBD10139944240F082801EE000BF013B55
:10446000002BFBD1022339498B6101E000BF013BE6
:10447000002BFBD1354B4FF400319961022301E051
:1044800000BF013B002BFBD1022330498B6101E0CF
:1044900000BF013B002BFBD111464A1E002900F052
:1044A00099802A4B4FF4003199610223D8E700BF6D
:1044B000013B002BFBD1022324498B6101E000BFAB
:1044C000013B002BFBD1214D696921F4E061090416
:1044D000090C530203F400731943130203F48063BD
:1044E0001943560006F4807319436961164F7B69BE
:1044F00023F487631B041B0C02F008010B4306F036
:1045000020063343511001F010010B43110101F457
:1045100080610B437B610E4E736923F080031B04A3
:104520001B0C910101F080010B4373614FF40033C8
:10453000AB61022301E000BF013B002BFBD1022352
:1045400002498B6108E000BF000402400000024005
:104550000008024000BF013B002BFBD10146481E72
:10456000002937D01D4D696921F4E0610904090C67
:10457000630203F400731943230203F480631943B5
:10458000660006F4807319436961154F7B6923F453
:1045900087631B041B0C04F008010B4306F0200684
:1045A0003343611001F010010B43210101F48061DC
:1045B0000B437B610B4E736923F080031B041B0CC0
:1045C000A10101F080010B4373614FF40033AB6133
:1045D00002236EE7024B01229A61F0BD0000024007
:1045E000000402400008024070B5A94B1B79022B61
:1045F00025D0032B27D0012B29D000231A46A54C08
:104600004FF48031A161A4494FF480158D614D694B
:1046100025F4E0652D042D0C4D61656925F4876551
:104620002D042D0C65619D4D6C6924F080042404DB
:10463000240C6C614FF400348C6102210CE040F2D8
:104640003F13EF22DBE740F23F130022D7E70023BE
:10465000EF22D4E700BF01390029FBD102218E4CA3
:10466000A16101E000BF01390029FBD18A4C6169D9
:1046700021F4E0610904090C6161864D696921F446
:1046800087610904090C41F01001696105F5806535
:10469000696921F080010904090C69614FF4003156
:1046A000A161022101E000BF01390029FBD10221F3
:1046B000794CA16101E000BF01390029FBD17649A5
:1046C00010248C614C6924F4E0642404240C4C61B3
:1046D000704D6C6924F487642404240C6C6105F526
:1046E00080656C6924F080042404240C6C614FF410
:1046F00000348C61022101E000BF01390029FBD1A7
:104700000221654CA16101E000BF01390029FBD104
:10471000D2B2614C616921F4E0610904090C5502CF
:1047200005F400752943150205F4806529435500F9
:1047300005F4807529436161564E716921F48761E2
:104740000904090C02F008052943551005F010056D
:104750002943150105F48065294371614F4D69694D
:1047600021F080010904090C920102F080020A4341
:104770006A614FF40032A261022201E000BF013AF7
:10478000002AFBD1022244498A6101E000BF013ABC
:10479000002AFBD1404A4FF480119161516921F404
:1047A000E0610904090C51613A4C616921F48761A7
:1047B0000904090C616104F58064616921F08001DC
:1047C0000904090C61614FF400319161022201E09A
:1047D00000BF013A002AFBD102222F498A6101E081
:1047E00000BF013A002AFBD12B494A6922F4E0625A
:1047F0001204120C42F400724A61264C626922F4DF
:1048000087621204120C42F01002626104F58064A7
:10481000626922F080021204120C62614FF40032CD
:104820008A61022201E000BF013A002AFBD1022284
:1048300019498A6101E000BF013A002AFBD1164CF8
:104840001022A2611A0A616921F4E0610904090CCD
:1048500041EA422262610F494A6922F487621204E6
:10486000120C4A6101F580614A6922F0800212044B
:10487000120C4A614FF40032A261022201E000BF33
:10488000013A002AFBD1022203498A610AE000BFF3
:104890001402002000040240000002400008024010
:1048A00000BF013A002AFBD1DBB2244C616921F43C
:1048B000E0610904090C5A0202F4007211431A0261
:1048C00002F480625D00114361611D4E726922F441
:1048D00087621204120C03F008010A4305F020015C
:1048E0000A43591001F010010A43726115494A69DF
:1048F00022F080021204120C9B0103F08003134388
:104900004B614FF40033A361022301E000BF013B80
:10491000002BFBD10223094A936101E000BF013B58
:10492000002BFBD103F1804303F5013301229A618F
:104930004FF49631FFF79CFC70BD00BF00000240B1
:1049400000040240000802402DE9F0412C4F0123F1
:10495000BB612C4D1022AA610224AC61AB612A4ECE
:104960004FF40038C6F818802046FDF787F8B46188
:104970007820FDF783F84FF48033BB614FF4801348
:10498000AB616B6923F4E0631B041B0C6B617B69F7
:1049900023F487631B041B0C7B61736923F0800382
:1049A0001B041B0C7361C5F8188001E000BF013CBB
:1049B000002CFBD10223134A936101E000BF013BAD
:1049C000002BFBD100220DE000BF013B002BFBD1EF
:1049D00002230C498B6101E000BF013B002BFBD19E
:1049E0000132D2B2022A05D8064B4FF40031996148
:1049F0000223EBE7024B01229A61BDE8F08100BF80
:104A00000004024000000240000802402DE9F0438B
:104A1000C74C4FF48035A561C64C2479022C33D0A5
:104A2000032C40D0012C24D005460C46C24E4FF436
:104A30008017B761776927F4E0673F043F0C77611F
:104A4000DFF8ECC2DCF8147027F487673F043F0CF2
:104A5000CCF814700CF5806CDCF8147027F080072B
:104A60003F043F0CCCF814704FF40037B7610226B6
:104A700027E0C3F1EF06C1F1EF018DB20446134602
:104A80002A460146B0B2D1E7C2F1EF06C0F1EF020B
:104A900092B240F23F10C71A411A8BB215461C461B
:104AA000B9B2B0B2C2E740F23F14A61A201A80B2DF
:104AB0000D4604461A4603460846B1B2B6E700BFA3
:104AC000013E002EFBD102269B4FBE6101E000BFDC
:104AD000013E002EFBD1984F7E6926F4E066360435
:104AE000360C7E61DFF848C2DCF8146026F4876675
:104AF0003604360C46F48466CCF814600CF5806CF1
:104B0000DCF8146026F080063604360CCCF814600D
:104B10004FF40036BE61022601E000BF013E002EC8
:104B2000FBD10226844FBE6101E000BF013E002E92
:104B3000FBD1DFF804C21026CCF81860C0F30726BA
:104B4000DCF8147027F4E0673F043F0C4FEA462E70
:104B50000EF4007E47EA0E074FEA062E0EF4806E32
:104B600047EA0E074FEA460808F4807E47EA0E0738
:104B7000CCF81470DFF8B8E1DEF8147027F487671A
:104B80003F043F0C06F0080947EA090708F020082F
:104B900047EA08074FEA660808F0100847EA0807DE
:104BA0004FEA061808F4806847EA0807CEF8147040
:104BB0000EF5806EDEF8147027F080073F043F0C7E
:104BC000B60106F080063E43CEF814604FF400367E
:104BD000CCF81860022601E000BF013E002EFBD198
:104BE0000226554FBE6101E000BF013E002EFBD101
:104BF000C0B2514F7E6926F4E0663604360C4FEAA7
:104C0000402C0CF4007C46EA0C064FEA002C0CF415
:104C1000806C46EA0C064FEA400E0EF4807C46EAB1
:104C20000C067E61DFF808C1DCF8146026F48766A4
:104C30003604360C00F0080846EA08060EF0200E8E
:104C400046EA0E064FEA600E0EF0100E46EA0E0619
:104C50004FEA001E0EF4806E46EA0E06CCF8146091
:104C60000CF5806CDCF8146026F080063604360CF7
:104C7000800100F080003043CCF814004FF4003085
:104C8000B861022001E000BF01380028FBD10220FA
:104C9000294EB06101E000BF01380028FBD1264851
:104CA0004FF480168661466926F4E0663604360CB9
:104CB00046611F4F7E6926F487663604360C7E6196
:104CC00007F580677E6926F080063604360C7E6123
:104CD0004FF400368661022001E000BF0138002851
:104CE000FBD10220144EB06101E000BF0138002862
:104CF000FBD1114E706920F4E0600004000C40F418
:104D0000007070610A4F786920F487600004000C1D
:104D100040F48460786107F58067786920F080004E
:104D20000004000C78614FF40030B061022007E00D
:104D300000040240140200200000024000BF0138BD
:104D40000028FBD10220A74EB06101E000BF01386E
:104D50000028FBD1A34F1020B861C2F307207E6961
:104D600026F4E0663604360C4FEA402C0CF4007C46
:104D700046EA0C064FEA002C0CF4806C46EA0C065E
:104D80004FEA400E0EF4807C46EA0C067E61DFF8A6
:104D900058C2DCF8146026F487663604360C00F03E
:104DA000080846EA08060EF0200E46EA0E064FEA0C
:104DB000600E0EF0100E46EA0E064FEA001E0EF4CC
:104DC000806E46EA0E06CCF814600CF5806CDCF8B8
:104DD000146026F080063604360C800100F0800056
:104DE0003043CCF814004FF40030B861022001E0E9
:104DF00000BF01380028FBD102207A4EB06101E0EB
:104E000000BF01380028FBD1D2B2764E776927F473
:104E1000E0673F043F0C500200F4007007431002AB
:104E200000F4806007434FEA420C0CF480700743A3
:104E300077616D4F786920F487600004000C02F000
:104E4000080E40EA0E000CF0200C40EA0C004FEA7D
:104E5000620C0CF0100C40EA0C004FEA021C0CF43F
:104E6000806C40EA0C00786107F58067786920F073
:104E700080000004000C920102F0800202437A617B
:104E80004FF40032B261022201E000BF013A002A71
:104E9000FBD102225348826101E000BF013A002A9F
:104EA000FBD1504A4FF480109061506920F4E060CB
:104EB0000004000C50614C4E706920F487600004BF
:104EC000000C706106F58066706920F080000004B7
:104ED000000C70614FF400309061022201E000BFCD
:104EE000013A002AFBD102223E48826101E000BF64
:104EF000013A002AFBD13B48426922F4E0621204E5
:104F0000120C4261384E726922F487621204120C4C
:104F100042F48462726106F58066726922F0800252
:104F20001204120C42F0800272614FF4003282616E
:104F3000022201E000BF013A002AFBD102222948E7
:104F4000826101E000BF013A002AFBD1254E102208
:104F5000B261C1F30720776927F4E0673F043F0C93
:104F6000420202F400721743020202F48062174305
:104F70004FEA400C0CF48072174377611A4F7A693C
:104F800022F487621204120C00F0080E42EA0E02AC
:104F90000CF0200C42EA0C024FEA600C0CF0100CF2
:104FA00042EA0C024FEA001C0CF4806C42EA0C024C
:104FB0007A6107F580677A6922F080021204120C88
:104FC000800100F08000104378614FF40032B2613C
:104FD000022201E000BF013A002AFBD1022201486F
:104FE000826105E0000002400004024000BF013A77
:104FF000002AFBD1C9B2BA4E706920F4E060000407
:10500000000C4A0202F4007210430A0202F48062A9
:1050100010434F0007F4807210437061B148426939
:1050200022F487621204120C01F0080C42EA0C020E
:1050300007F020073A434F1007F010073A430F01DB
:1050400007F480673A43426100F58060426922F0CC
:1050500080021204120C890101F0800111434161A8
:105060004FF40032B261022201E000BF013A002A8F
:10507000FBD102229A498A6101E000BF013A002A6D
:10508000FBD1974A4FF480119161516921F4E0619D
:105090000904090C51619348416921F487610904AD
:1050A000090C416100F58060416921F0800109042B
:1050B000090C41614FF400319161022201E000BF0F
:1050C000013A002AFBD1022285498A6101E000BF32
:1050D000013A002AFBD182494A6922F4E0621204B3
:1050E000120C42F400724A617E48426922F48762DF
:1050F0001204120C42F48462426100F5806042693D
:1051000022F080021204120C42F0800242614FF43D
:1051100000328A61022201E000BF013A002AFBD17D
:1051200002226F498A6101E000BF013A002AFBD1E7
:105130006B4E1022B261C3F30720716921F4E06164
:105140000904090C420202F400721143020202F443
:1051500080621143470007F4807211437161614915
:105160004A6922F487621204120C00F0080C42EA29
:105170000C0207F020073A43471007F010073A43A4
:10518000070107F480673A434A6101F580614A6983
:1051900022F080021204120C800100F08000104303
:1051A00048614FF40032B261022201E000BF013ACF
:1051B000002AFBD102224A498A6101E000BF013A7C
:1051C000002AFBD1DBB24648416921F4E0610904C1
:1051D000090C5A0202F4007211431A0202F48062AE
:1051E00011435E0006F48072114341613D4F7A69BC
:1051F00022F487621204120C03F008010A4306F03D
:1052000020063243591001F010010A43190101F43C
:1052100080610A437A6134494A6922F080021204AB
:10522000120C9B0103F0800313434B614FF40033D6
:105230008361022301E000BF013B002BFBD102236D
:10524000274A936101E000BF013B002BFBD1AAB2CA
:10525000234B4FF480119961596921F4E0610904ED
:10526000090C59611F48416921F487610904090C3F
:10527000416100F58060416921F080010904090C59
:1052800041614FF400319961022301E000BF013B0D
:10529000002BFBD1022312498B6101E000BF013BCF
:1052A000002BFBD10E494B6923F4E0631B041B0C5C
:1052B0004B610C48436923F487631B041B0C43F0C8
:1052C0001003436100F58060436923F080031B04F1
:1052D0001B0C43614FF400338B61022308E000BFD5
:1052E00000000240000402400008024000BF013BF1
:1052F000002BFBD10223B8498B6101E000BF013BC9
:10530000002BFBD1B44D1023AB61130A686920F464
:10531000E0600004000C590201F400710843190216
:1053200001F4806108435E0006F4807108436861FF
:10533000AA4F796921F487610904090C03F0080078
:10534000014306F020063143581000F010000143DD
:10535000180100F4806001437961A148416921F09E
:1053600080010904090C9B0103F080030B43436196
:105370004FF40033AB61022301E000BF013B002B7F
:10538000FBD1022394498B6101E000BF013B002B5C
:10539000FBD1D2B29048416921F4E0610904090CC3
:1053A000530203F400731943130203F48063194397
:1053B000550005F4807319434161884E736923F4E5
:1053C00087631B041B0C02F008010B4305F020054A
:1053D0002B43511001F010010B43110101F48061C6
:1053E0000B4373617E494B6923F080031B041B0C44
:1053F000920102F080021A434A614FF40033836144
:10540000022301E000BF013B002BFBD10223724AC3
:10541000936101E000BF013B002BFBD1A4B26E4BB6
:105420004FF480129A615A6922F4E0621204120C5D
:105430005A616A494A6922F487621204120C4A616D
:1054400001F580614A6922F080021204120C4A615F
:105450004FF400329A61022301E000BF013B002BB0
:10546000FBD102235C4A936101E000BF013B002BAA
:10547000FBD1594A536923F4E0631B041B0C43F42A
:105480000073536155494B6923F487631B041B0C5C
:1054900043F010034B6101F580614B6923F08003F9
:1054A0001B041B0C4B614FF400339361022301E09A
:1054B00000BF013B002BFBD10223474A936101E06F
:1054C00000BF013B002BFBD1434810238361230A1B
:1054D000416921F4E0610904090C5A0202F40072E6
:1054E00011431A0202F4806211435D0005F48072D8
:1054F00011434161394E726922F487621204120C21
:1055000003F008010A4305F020052A43591001F071
:1055100010010A43190101F480610A437261304DA0
:10552000696921F080010904090C9A0102F08002E6
:105530000A436A614FF400338361022301E000BF34
:10554000013B002BFBD10223234A936101E000BF02
:10555000013B002BFBD1E3B21F48416921F4E0611C
:105560000904090C5A0202F4007211431A0202F4EF
:10557000806211435C0004F4807211434161174D55
:105580006A6922F487621204120C03F008010A43CC
:1055900004F020042243591001F010010A431901BC
:1055A00001F480610A436A610D494A6922F0800270
:1055B0001204120C9B0103F0800313434B614FF460
:1055C00000338361022301E000BF013B002BFBD1CC
:1055D0000223014A936107E00000024000040240F8
:1055E0000008024000BF013B002BFBD103F18043C8
:1055F00003F5013301229A61BDE8F08338B500F06C
:105600000300754B1871032809D8DFE800F0023257
:105610000232714BF0221A804FF4A0725A806F4B05
:105620004FF480329A6102282AD003282BD0012817
:105630002CD041F230036A4A4FF4801191615169D4
:1056400021F4E0610904090C51616448416921F4C5
:1056500087610904090C416100F58060416921F00E
:1056600080010904090C41614FF40031916102226B
:1056700011E0594B4FF4A0721A80F0225A80CEE705
:105680004FF48053D7E741F21803D4E741F22803DF
:10569000D1E700BF013A002AFBD1022250498A61BA
:1056A00001E000BF013A002AFBD14D494A6922F4CA
:1056B000E0621204120C42F400724A6147484269E7
:1056C00022F487621204120C426100F58060426984
:1056D00022F080021204120C42F0800242614FF468
:1056E00000328A61022201E000BF013A002AFBD1A8
:1056F00002223B498A6101E000BF013A002AFBD146
:105700003748102282611A0A416921F4E0610904D4
:10571000090C4161314C616921F487610904090C6C
:1057200041EA420262612F494A6922F08002120472
:10573000120C4A614FF400328261022201E000BF84
:10574000013A002AFBD1022225498A6101E000BF0B
:10575000013A002AFBD1DBB221494A69580022F400
:10576000E0621204120C4A611C4C626922F48762E6
:105770001204120C03F008052A4300F02000024333
:105780005B1003F0100313436361164A536923F05F
:1057900080031B041B0C53614FF400338B61022305
:1057A00001E000BF013B002BFBD102230C4A9361B7
:1057B00001E000BF013B002BFBD1074A5388013BAE
:1057C0001288013A9BB292B200210846FFF71EF9F7
:1057D000024B01229A6138BD1402002000040240ED
:1057E00000000240000802402DE9F04F87B001930D
:1057F000BDF8403002933D4BB3F806B09D883C4B5A
:10580000B3F9003083426DDD80460E46384BB3F964
:1058100002308B4266DD4319012B63D401EB0B038D
:10582000012B5FD4EB1DDB1003931F2A03D97E2AC3
:1058300002D9202200E02022203A02FB0BF203983A
:1058400081B20B4603FB02F305934FEAC0095FFAEE
:1058500089F9EBB2A9EB03095FFA89F94FF0000A65
:10586000CDF810B08B4625E0D75C00240CE0D35C6B
:105870004F7847EA0327F8E704EB0800029A31461D
:1058800000B2FEF707FA0134A5420FD92B1B4B4497
:10589000013B012202FA03F33B42EDD004EB080086
:1058A000019A314600B2FEF7F5F9ECE7013636B25F
:1058B0000AF1010A049B534514D90C4B1A68039B47
:1058C00005990AFB0313D118BBF1010FCCD0BBF132
:1058D000020FCCD0D35C4F783F0247EA03478B7866
:1058E0001F43C2E707B0BDE8F08F00BF08000020EB
:1058F000140200200FB470B584B008AA52F8041B3B
:105900000392384C204604F089FF374BDA88ADF813
:105910000A209B88ADF808300BE0BDF80A20334B15
:10592000B3F808110A44A3F808210022A3F80A21B9
:1059300001342278002A4FD00A2AEED00D2A3CD01A
:10594000092A3FD02949B1F90801BDF80A50B1F937
:1059500002305B1B984203DB0B460021A3F80811C1
:10596000224DB5F80C31B5F90811B5F90A0195F8D1
:105970000E610196B5F810610096FFF735FFBDF88E
:105980000830B5F80A2113441BB2A5F80A3195F87E
:105990001221002ACCD0BDF80810B5F90020521A07
:1059A0009342C5DDBDF80A20B5F808110A44A5F8F0
:1059B00008210022A5F80A21BAE70C4B0022A3F81F
:1059C0000A21B5E7BDF80810084AB2F80A3103EB1E
:1059D0008103A2F80A31ABE704B0BDE8704004B01F
:1059E000704700BF1C0200200800002014020020A5
:1059F000024BA3F80A01A3F8081170471402002013
:105A000018B9044A82F80E017047024B002283F84D
:105A10000E21704714020020024BA3F80C01A3F8DA
:105A20001011704714020020F8B5B64BF0221A800E
:105A30004FF4A0725A8000241C71A3F80A41A3F805
:105A4000084183F80E414FF6FF72A3F81021A3F826
:105A50000C21012083F81201FEF7AEF8FEF774FF67
:105A60003220FCF70BF8A84B4FF480329A61DFE04C
:105A7000FCF704F8DCE000BF013A002AFBD1022267
:105A8000A2498A6101E000BF013A002AFBD1DBB2E2
:105A90009E4D696921F4E0610904090C5A0202F47F
:105AA000007211431A0202F4806211435E0006F490
:105AB000807211436961944F7A6922F487621204FB
:105AC000120C03F008010A4306F020063243591075
:105AD00001F010010A43190101F480610A437A615F
